:030000000209C62C
:0C09C600787FE4F6D8FD758124020A0D4C
:0A0B93003F065B4F666D7D077F6F24
:100B0600080D000102030405060709150000000090
:100B16000000000000C181011E00011F0001080243
:0A0B2600010900010A00020B0000A3
:100B7E00D3EF9400EE9400400B7D72DDFEEF1F70FC
:040B8E00EF1E80ECEA
:010B92002240
:100B6700E4F5B175B210F5937594FFF59575960890
:070B7700C2B4C200C2A322B8
:100B4F00120B67C2A3D2AF7F017E00120A5230018F
:080B5F00FDC20112093080F60D
:100A520075240075231075220E752100E4FCFDAB90
:100A620024AA23A922A821120800E47BE87A03F928
:100A7200F812088B8F248E238D228C21C3E49524B7
:100A8200F524E49523F52374019522F522E49521BA
:100A9200F521E5242412F524E43523F523E4352257
:100AA200F522E43521F521AF24AE23AD22FC7808EE
:100AB20012091D8F1E85241F5389F0438901851E4B
:080AC2008C851F8AD2A9D28C99
:010ACA002209
:10093000E509704220B2157F0AFE120B7E20B20C30
:1009400030B2FD75080275091E751D01E5081460B9
:100950000F1460172402705675080175090A804E3D
:1009600075080275091E751D018043E4F5087509B7
:1009700008751D078038150920B2167F0A7E0012FF
:100980000B7E20B20C30B2FD75080275091E751D74
:1009900001E508B40204B2008002C200E508B40117
:1009A0000DE50920E005751D038003E4F51DE5094B
:1009B00075F00A84900B9393F515E50975F00A8498
:0509C000E5F093F516BF
:0109C500220F
:100B3100C2A37580FF850AA07415250AF8E6F58021
:0D0B4100E50AC394085003050A22E4F50AF2
:010B4E002284
:03000B00020ACB1B
:090ACB00C0E0C0D075D000C000ED
:100AD400851E8C851F8A120B31050CE50C700205EE
:100AE4000BC394E8E50B94034008750B00750C00E8
:0B0AF400D201300004B2B48002C2B492
:070AFF00D000D0D0D0E0329E
:1009D200020B4FE493A3F8E493A34003F68001F2E1
:1009E20008DFF48029E493A3F85407240CC8C33326
:1009F200C4540F4420C8834004F456800146F6DFF5
:100A0200E4800B0102040810204080900B06E47E73
:100A1200019360BCA3FF543F30E509541FFEE493E9
:100A2200A360010ECF54C025E060A840B8E493A3B0
:100A3200FAE493A3F8E493A3C8C582C8CAC583CADB
:100A4200F0A3C8C582C8CAC583CADFE9DEE780BE93
:010B300000C4
:10080000E88FF0A4CC8BF0A42CFCE98EF0A42CFC97
:100810008AF0EDA42CFCEA8EF0A4CDA8F08BF0A415
:100820002DCC3825F0FDE98FF0A42CCD35F0FCEB74
:100830008EF0A4FEA9F0EB8FF0A4CFC5F02ECD3939
:0F084000FEE43CFCEAA42DCE35F0FDE43CFC22A6
:10084F0075F008758200EF2FFFEE33FECD33CDCC60
:10085F0033CCC58233C5829BED9AEC99E5829840E3
:10086F000CF582EE9BFEED9AFDEC99FC0FD5F0D6C0
:10087F00E4CEFBE4CDFAE4CCF9A88222B800C1B9EA
:10088F000059BA002DEC8BF084CFCECDFCE5F0CB28
:10089F00F97818EF2FFFEE33FEED33FDEC33FCEB61
:1008AF0033FB10D703994004EB99FB0FD8E5E4F91C
:1008BF00FA227818EF2FFFEE33FEED33FDEC33FC09
:1008CF00C933C910D7059BE99A4007EC9BFCE99AFD
:1008DF00F90FD8E0E4C9FAE4CCFB2275F010EF2F42
:1008EF00FFEE33FEED33FDCC33CCC833C810D70742
:1008FF009BEC9AE899400AED9BFDEC9AFCE899F87D
:0E090F000FD5F0DAE4CDFBE4CCFAE4C8F9220F
:10091D00E8600FECC313FCED13FDEE13FEEF13FFB8
:03092D00D8F122DC
:00000001FF
