:03000000020930C2
:0C093000787FE4F6D8FD75812402097779
:0A0B4D003F065B4F666D7D077F6F6A
:100AD500080D0001020304050607091500000000C2
:100AE5000000000000C181011E00011F0001080275
:0A0AF500010900010A00020B0000D5
:100B3600E4F5B175B210F5937594FFF595759608C1
:070B4600C2B4C200C2A322E9
:100B1E00120B36C2A3D2AF7F017E001209BC300188
:080B2E00FDC201120A3580F638
:1009BC0075240075231075220E752100E4FCFDAB27
:1009CC0024AA23A922A821120800E47BE87A03F9BF
:1009DC00F812088B8F248E238D228C21C3E495244E
:1009EC00F524E49523F52374019522F522E4952151
:1009FC00F521E5242412F524E43523F523E43522EE
:100A0C00F522E43521F521AF24AE23AD22FC780884
:100A1C0012091D8F1E85241F5389F0438901851EE1
:080A2C008C851F8AD2A9D28C2F
:010A3400229F
:100A3500E509702AE50814600F1460172402703D5B
:100A450075080175090A803575080275091E751D39
:100A550001802AE4F508750908751D07801F150929
:100A6500E508B40204B2008002C200E508B4010D35
:100A7500E50920E005751D038003E4F51DE509750D
:100A8500F00A84900B4D93F515E50975F00A84E598
:040A9500F093F516CF
:010A9900223A
:100B0000C2A37580FF850AA07415250AF8E6F58052
:0D0B1000E50AC394085003050A22E4F50A23
:010B1D0022B5
:03000B00020A9A4C
:090A9A00C0E0C0D075D000C0001E
:100AA300851E8C851F8A120B00050CE50C70020550
:100AB3000BC394E8E50B94034008750B00750C0019
:0B0AC300D201300004B2B48002C2B4C3
:070ACE00D000D0D0D0E032CF
:10093C00020B1EE493A3F8E493A34003F68001F2A8
:10094C0008DFF48029E493A3F85407240CC8C333BC
:10095C00C4540F4420C8834004F456800146F6DF8B
:10096C00E4800B0102040810204080900AD5E47E3C
:10097C00019360BCA3FF543F30E509541FFEE49380
:10098C00A360010ECF54C025E060A840B8E493A347
:10099C00FAE493A3F8E493A3C8C582C8CAC583CA72
:1009AC00F0A3C8C582C8CAC583CADFE9DEE780BE2A
:010AFF0000F6
:10080000E88FF0A4CC8BF0A42CFCE98EF0A42CFC97
:100810008AF0EDA42CFCEA8EF0A4CDA8F08BF0A415
:100820002DCC3825F0FDE98FF0A42CCD35F0FCEB74
:100830008EF0A4FEA9F0EB8FF0A4CFC5F02ECD3939
:0F084000FEE43CFCEAA42DCE35F0FDE43CFC22A6
:10084F0075F008758200EF2FFFEE33FECD33CDCC60
:10085F0033CCC58233C5829BED9AEC99E5829840E3
:10086F000CF582EE9BFEED9AFDEC99FC0FD5F0D6C0
:10087F00E4CEFBE4CDFAE4CCF9A88222B800C1B9EA
:10088F000059BA002DEC8BF084CFCECDFCE5F0CB28
:10089F00F97818EF2FFFEE33FEED33FDEC33FCEB61
:1008AF0033FB10D703994004EB99FB0FD8E5E4F91C
:1008BF00FA227818EF2FFFEE33FEED33FDEC33FC09
:1008CF00C933C910D7059BE99A4007EC9BFCE99AFD
:1008DF00F90FD8E0E4C9FAE4CCFB2275F010EF2F42
:1008EF00FFEE33FEED33FDCC33CCC833C810D70742
:1008FF009BEC9AE899400AED9BFDEC9AFCE899F87D
:0E090F000FD5F0DAE4CDFBE4CCFAE4C8F9220F
:10091D00E8600FECC313FCED13FDEE13FEEF13FFB8
:03092D00D8F122DC
:00000001FF
